:100000000C945C160C948D160C948D160C948D1615
:100010000C948D160C948D160C948D160C948D16D4
:100020000C948D160C948D160C948D160C948D16C4
:100030000C948D160C94FF570C948D160C948D1601
:100040000C948D160C94269B0C948D160C948D1686
:100050000C948D160C948D160C942AB60C948CC5A9
:100060000C948D160C940F390C948D160C948D16DF
:100070000C948D160C948D160C948D160C948D1674
:100080000C948D160C948D160C948D160C948D1664
:100090000C948D160C948D160C948D160C948D1654
:1000A0000C948D160C948D160C948D160C948D1644
:1000B0000C948D160C948D160C948D160C948D1634
:1000C0000C948D160C948D160C948D160C948D1624
:1000D0000C948D160C948D160C948D160C948D1614
:1000E0000C948D16C8C3CBC3BAC3BEC3C4C302C469
:1000F000CFC3D3C3D9C3DDC3E1C3E7C3EBC3EFC3EE
:1001000002C4F5C3F9C3FDC3A8C4ADC4B2C4BCC422
:10011000C6C43FC5D0C4D8C4E0C4EAC4F4C4FEC455
:100120000DC517C53FC521C52BC535C5084AD73BE9
:100130003BCE016E84BCBFFDC12F3D6C74319ABDB6
:1001400056833DDA3D00C77F11BED9E4BB4C3E91DA
:100150006BAAAABE000000803F05A84CCDB2D44EC9
:10016000B93836A9020C50B9918688083CA6AAAACB
:100170002ABE000000803F004E414E494E4954596E
:10018000494E46CDCCCC3D0AD7233C17B7D1387762
:10019000CC2B329595E6241FB14F0A000020410078
:1001A00000C84200401C4620BCBE4CCA1B0E5AAEC2
:1001B000C59D74434F4D4D554E49434154494F4E93
:1001C0000044525952554E004552524F5253004925
:1001D0004E464F004543484F0047322F4733206279
:1001E000616420706172616D65746572730A005399
:1001F0006C6565702E2E2E00206F6620004D424CDF
:100200002047323920706F696E74200059206F7555
:1002100074206F662072616E67652028312D332946
:100220002E0A0058206F7574206F662072616E6709
:10023000652028312D33292E0A004D657368207002
:10024000726F62696E6720646F6E652E0A00537468
:10025000617274206D6573682070726F62696E6779
:100260002077697468202247323920533122206672
:10027000697273742E0A004732380A4732392053A4
:10028000320053746174653A20004D6573682062D2
:100290006564206C6576656C696E672068617320A3
:1002A0006E6F20646174612E0A0053206F75742094
:1002B0006F662072616E67652028302D35292E0A01
:1002C000004D65736820706F696E742063616E6E97
:1002D0006F74206265207265736F6C7665640A00C6
:1002E000286E6F2066696C6529005344207072691E
:1002F0006E74696E67206279746520004E6F742099
:100300005344207072696E74696E670A0043757297
:1003100072656E742066696C653A200046696C658A
:100320002064656C657465643A0044656C65746945
:100330006F6E206661696C65642C2046696C653A55
:1003400020005072696E742074696D653A20006FE8
:100350006E2E0A006F66662E0A004732362044650C
:10036000627567200046696C616D656E74207573F7
:1003700065643A200053746174733A20002C204C59
:100380006F6E67657374206A6F623A2000546F74F1
:10039000616C2074696D653A200053746174733A1E
:1003A00020002C204661696C65643A20002C2046B0
:1003B000696E69736865643A20005072696E74737F
:1003C0003A200053746174733A2000D401CF01C8FD
:1003D00001C101B3016F66660044454255473A00CA
:1003E0004B494C4C45442E20004D313133205300B5
:1003F0006F6B0020573A004520436F6F6C696E6742
:100400002E2E2E00452048656174696E672E2E2EB3
:100410000020573A0042656420636F6F6C696E6715
:100420002E2E2E004265642068656174696E672E09
:100430002E2E007A5F6D696E3A2000795F6D696ECD
:100440003A2000785F6D696E3A20005265706F72D5
:1004500074696E6720656E6473746F702073746165
:100460007475730A004D31343520533C696E6465F0
:10047000783E206F7574206F662072616E6765200C
:1004800028302D31290A0020540020520041636396
:10049000656C65726174696F6E3A20500057415205
:1004A0004E494E4721204C6F77205A204A65726B87
:1004B000206D6179206C65616420746F20756E77A2
:1004C000616E746564207061757365732E0A004FE8
:1004D000666673657473206170706C69656400454D
:1004E00072723A20546F6F206661722100546F6FF0
:1004F000206661722066726F6D2072656665726536
:100500006E636520706F696E740A00205A0020596E
:1005100000580020204D61783A2000205A002059D0
:1005200000580020204D696E3A20004F6E20004F89
:10053000666600536F667420656E6473746F7073C3
:100540003A200020466C6F773A20000001252723CF
:1005500018FFFFFFFF1F211D1CFFFFFFFF19171BC7
:100560001EFFFFFFFFFFFF0C0409FFFFFF2E2C0CF7
:10057000FFFFFF04400AFF4120643A0020693A006F
:1005800020703A00496E76616C69642065787472F7
:10059000756465720A0043290A0061626C65642013
:1005A000286D696E2074656D702000436F6C642047
:1005B00065787472756465732061726520002364C8
:1005C0006566696E652044454641554C545F4B64F1
:1005D000200023646566696E652044454641554C9C
:1005E000545F4B69200023646566696E652044454D
:1005F0004641554C545F4B70200050494420417592
:10060000746F74756E652066696E697368656421C0
:100610002050757420746865206C617374204B7071
:100620002C204B6920616E64204B6420636F6E73D5
:1006300074616E74732066726F6D2062656C6F7783
:1006400020696E746F20436F6E666967757261749E
:10065000696F6E2E680A00504944204175746F74AA
:10066000756E65206661696C6564212074696D65CD
:100670006F75740A00453120544845524D414C2055
:1006800052554E4157415900546865726D616C2056
:1006900052756E61776179004531204865617469F2
:1006A0006E67206661696C65640048656174696E97
:1006B00067206661696C6564005049442041757427
:1006C0006F74756E65206661696C65642120546580
:1006D0006D706572617475726520746F6F206869E2
:1006E00067680A00204B643A2000204B693A2000DA
:1006F000204B703A20000A20436C617373696320B9
:10070000504944200A002054753A2000204B753A85
:100710002000206D61783A2000206D696E3A20003B
:1007200020643A200020626961733A2000504944F5
:10073000204175746F74756E65206661696C6564BF
:100740002120426164206578747275646572206E40
:10075000756D6265720A00504944204175746F746A
:10076000756E652073746172740A004E6F20636148
:100770007365206C696768740A004D657368207042
:100780006F696E742063616E6E6F74206265207293
:1007900065736F6C7665640A004D34323120696E82
:1007A000636F727265637420706172616D657465E8
:1007B000722075736167650A00454550524F4D20A0
:1007C0004F4B0A00416374697665204578747275F1
:1007D0006465723A2000496E76616C6964206578C0
:1007E0007472756465720A004D6573682056616C99
:1007F00069646174696F6E2053746F707065642EE4
:1008000000696E206D6F76655F746F2829206665BC
:1008100065645F76616C756520666F722058593A21
:10082000004C656176696E67204732360047323684
:100830002048656174696E67204E6F7A7A6C652E08
:10084000004732362048656174696E6720426564EE
:100850002E00446F6E65205072696D696E670046A8
:1008600069786564204C656E677468205072696DA4
:10087000652E00557365722D436F6E74726F6C6CCC
:100880006564205072696D65002C2065793D0029F2
:10089000202D3E202865783D002C2073793D0020D6
:1008A000436F6E6E656374696E6720776974682044
:1008B000766572746963616C206C696E652028735B
:1008C000783D002C2065793D0029202D3E202865AB
:1008D000783D002C2073793D0020436F6E6E656378
:1008E00074696E67207769746820686F72697A6FBF
:1008F0006E74616C206C696E65202873783D004CC5
:10090000656176696E6720473236003F53706563D4
:10091000696669656420582C5920636F6F72646939
:100920006E617465206F7574206F6620626F756EDE
:1009300064732E0A003F2852296570656174207621
:10094000616C7565206E6F7420706C61757369627F
:100950006C653B206D757374206265206174206C3A
:100960006561737420312E0A003F537065636966B8
:10097000696564206E6F7A7A6C652074656D706548
:10098000726174757265206E6F7420706C6175731E
:1009900069626C652E0A003F53706563696669651C
:1009A000642066696C616D656E742073697A652078
:1009B0006E6F7420706C61757369626C652E0A00CD
:1009C0003F537065636966696564207072696D651F
:1009D000206C656E677468206E6F7420706C617532
:1009E0007369626C652E0A003F53706563696669BE
:1009F0006564206E6F7A7A6C652073697A65206E03
:100A00006F7420706C61757369626C652E0A003FAB
:100A100053706563696669656420526574726163C9
:100A200074696F6E204D756C7469706C69657220A5
:100A30006E6F7420706C61757369626C652E0A004C
:100A40003F52657472616374696F6E204D756C748A
:100A500069706C696572206D7573742062652073AE
:100A600070656369666965642E0A003F537065634B
:100A70006966696564206C6179657220686569677B
:100A80006874206E6F7420706C61757369626C6538
:100A90002E0A003F5370656369666965642062656C
:100AA000642074656D7065726174757265206E6F17
:100AB0007420706C61757369626C65202834302D08
:100AC00031343043292E0A0047323620636F6D6D72
:100AD000616E6420737461727465642E205761695D
:100AE00074696E6720666F7220686561746572282C
:100AF00073292E0A002569730025696D2025697305
:100B0000002569682025696D2025697300256964C1
:100B1000202569682025696D20256973002569797C
:100B200020256964202569682025696D2025697361
:100B3000004D3234004D323320257300556E6B6EFC
:100B40006F776E20636F6D6D616E643A202200488E
:100B50006F6D652025732573257320666972737424
:100B6000002066697273740A005A005900580048E0
:100B70006F6D652000000048420000484200008080
:100B8000400000000053442063617264206F6B0AD0
:100B9000006F70656E526F6F74206661696C65647A
:100BA0000A00766F6C756D652E696E6974206661DA
:100BB000696C65640A00534420696E69742066613B
:100BC000696C0A0057726974696E6720746F2066D9
:100BD000696C653A20006F70656E206661696C65AE
:100BE000642C2046696C653A20006F70656E206643
:100BF00061696C65642C2046696C653A2000466921
:100C00006C652073656C65637465640A00205369C4
:100C10007A653A200046696C65206F70656E656480
:100C20003A20002066696C653A2000646F696E673F
:100C3000006672657368004E6F772000454E442051
:100C4000535542524F5554494E450A002220706F69
:100C500073002220706172656E743A22005355420F
:100C6000524F5554494E452043414C4C20746172BB
:100C70006765743A22004B494C4C45442E20007461
:100C80007279696E6720746F2063616C6C20737574
:100C9000622D67636F64652066696C657320776990
:100CA000746820746F6F206D616E79206C65766555
:100CB0006C732E204D4158206C6576656C206973ED
:100CC0003A004572726F723A006F70656E2066610D
:100CD000696C65642C2046696C653A200050726529
:100CE0006865617420504C4120456E640050726507
:100CF0006865617420504C41204265640050726503
:100D00006865617420504C41005072657061726575
:100D100000507265686561742041425320456E64DD
:100D200000507265686561742041425320426564D9
:100D300000507265686561742041425300507265CD
:100D400070617265004C6576656C696E6720446FF2
:100D50006E6521004D6F7665205A00473239205369
:100D600032004E65787420506F696E7400256920DA
:100D70002F20257500473239205331004732392062
:100D8000533200436C69636B20746F20426567695E
:100D90006E00486F6D696E672058595A00473238A7
:100DA0000053746F72652073657474696E677300A5
:100DB0004C6F61642073657474696E67730042657B
:100DC00064205A00426564205A00466164652048E8
:100DD000656967687400466164652048656967688D
:100DE00074004F6666004F6E2000426564204C65BB
:100DF00076656C696E67004C6576656C206265642B
:100E00000050726570617265004D34323800507266
:100E1000656865617420504C4100436F6F6C646F6E
:100E2000776E0050726568656174204142530044DA
:100E3000697361626C6520737465707065727300AC
:100E40004D38340053657420686F6D65206F666699
:100E50007365747300426564204C6576656C696ED9
:100E60006700486F6D65205A00473238205A0048A5
:100E70006F6D65205900473238205900486F6D6505
:100E80002058004732382058004175746F20686F31
:100E90006D6500473238004D6F7665206178697363
:100EA000004D61696E00000020002300260029002B
:100EB0002C002F003200000100000301060109018F
:100EC00005050505070508080808020202020A0AC6
:100ED00008080404040401010101010101010303E4
:100EE000030303030303040707070C0C0C0C0C0C8F
:100EF0000C0C0202020206060606060606060B0B8C
:100F00000B0B0B0B0B0B01021020200808102040CC
:100F100010204080020102010804020101020408BD
:100F2000102040808040201008040201800402014B
:100F30008040201008040201080402010102040894
:100F400010204080010204081020408000000A0B9D
:100F500002090C0D0E080703040100000000000048
:100F60000000000000000000000000000000000081
:100F7000000000000000000012111000000000003E
:100F80000000000000000000000000000000000061
:100F90000000024B494C4C45442E2000202D204996
:100FA0006E76616C69642065787472756465722010
:100FB0006E756D62657220210A00001C1F11111FE1
:100FC00000000006191803130C00040E1F041C0077
:100FD0000000000E1315110E00001C101817050656
:100FE0000500040A0A0A0A11110E0C12120C000064
:100FF0000000001F1511151F00002D2D2D2D2D2D6A
:10100000007C4D61726C696E7C002D2D2D2D2D2D77
:1010100000687474703A2F2F6D61726C696E667718
:101020002E6F726700687474703A2F2F6D61726C46
:10103000696E66772E6F72670020312E312E39006F
:101040002020506C616E6E657242756666657242F4
:10105000797465733A20002046726565204D656D90
:101060006F72793A2000436F6D70696C65643A2045
:1010700041756720323920323031380A00207C2017
:10108000417574686F723A20286E6F6E652C20640B
:10109000656661756C7420636F6E666967290A0006
:1010A000323031382D30372D333100204C6173749C
:1010B00020557064617465643A2000312E312E39F8
:1010C0000A004D61726C696E0020536F667477611F
:1010D00072652052657365740A00205761746368F5
:1010E000646F672052657365740A002042726F77DF
:1010F0006E206F75742052657365740A0020457800
:101100007465726E616C2052657365740A00506F6D
:1011100077657255700A0073746172740A006175A4
:10112000746F25692E67006572726F72207772691D
:1011300074696E6720746F2066696C650A00456E7D
:101140006473746F707320256320256320256320EA
:10115000256300205A3A0020593A0020583A006589
:101160006E6473746F7073206869743A2000446F02
:101170006E6520736176696E672066696C652E0AFC
:10118000004D3239005072696E746572205374617B
:10119000747300546865726D6973746F7273004282
:1011A0006F61726420496E666F005072696E74657B
:1011B0007220496E666F004D61696E004361726412
:1011C0002072656D6F766564004361726420696E9C
:1011D000736572746564000000000001020404007D
:1011E00000001C1C0C0404040201000000000004A8
:1011F0000810000000000045787472756465720084
:101200004D6F7665205A004D6F76652059004D6F01
:1012100076652058005072657061726500496E698C
:101220007469616C697A6520454550524F4D0043A1
:101230006F6E74726F6C00526573746F72652066A6
:1012400061696C73616665004C6F616420736574DD
:1012500074696E677300496E697469616C697A6557
:1012600020454550524F4D0053746F726520736591
:101270007474696E67730046696C616D656E7400A5
:101280004D6F74696F6E0054656D70657261747531
:101290007265004D61696E00507265686561742009
:1012A00041425320636F6E660050726568656174D9
:1012B00020504C4120636F6E66005049442D44001D
:1012C0005049442D44005049442D49005049442D73
:1012D00049005049442D50005049442D50002002EF
:1012E000204661637400200220466163740020027E
:1012F000204D6178002002204D6178002002204DB1
:101300006178002002204D696E002002204D696E38
:10131000002002204D696E004F6666004F6E20006F
:101320004175746F74656D700046616E20737065F1
:1013300065640046616E2073706565640042656493
:1013400000426564004E6F7A7A6C65004E6F7A7A5F
:101350006C6500436F6E74726F6C0053746F7265CE
:101360002073657474696E6773004265640042653A
:1013700064004E6F7A7A6C65004E6F7A7A6C650005
:1013800046616E2073706565640046616E207370FF
:101390006565640054656D70657261747572650091
:1013A0004573746570732F6D6D004573746570734C
:1013B0002F6D6D005A73746570732F6D6D005A73C5
:1013C000746570732F6D6D005973746570732F6D34
:1013D0006D005973746570732F6D6D00587374656B
:1013E00070732F6D6D005873746570732F6D6D0081
:1013F0004D6F74696F6E0053746570732F6D6D005F
:101400004A65726B00416363656C65726174696FF4
:101410006E0056656C6F6369747900436F6E747209
:101420006F6C0046696C2E204469612E0046696C21
:101430002E204469612E004F6666004F6E200045E5
:1014400020696E206D6D3300436F6E74726F6C0097
:1014500043616E6E6F7420656E7465722073756281
:101460006469723A2000052E2E004D61696E0000FD
:10147000457874727564656420746F74616C3A2089
:1014800000256C642E25696D00004C6F6E676573D6
:1014900074206A6F622074696D653A200000546F91
:1014A00074616C207072696E742074696D653A2085
:1014B00000436F6D706C657465643A20005072690A
:1014C0006E7420436F756E743A20004D617820541D
:1014D000656D703A20313030004D696E2054656D75
:1014E000703A203500544265643A4550434F5320CA
:1014F0003130304B004D61782054656D703A2032A8
:101500003530004D696E2054656D703A20350054B9
:10151000303A204550434F53203130304B00505328
:10152000553A2047656E657269630050726F746F3B
:10153000636F6C3A20312E3000426175643A20327C
:10154000353030303000556C74696D616B657200F8
:101550004D657368204C6576656C696E67004578EB
:10156000747275646572733A203100687474703AED
:101570002F2F6D61726C696E66772E6F72670041F6
:10158000313000323031382D30372D333100312EAB
:10159000312E39004D61726C696E00627573793A53
:1015A0002070617573656420666F7220696E707556
:1015B000740A00627573793A2070617573656420EE
:1015C000666F7220757365720A00627573793A20CE
:1015D00070726F63657373696E670A004B494C4C98
:1015E00045442E20004B494C4C2063617573656463
:1015F00020627920746F6F206D75636820696E6159
:1016000063746976652074696D65202D2063757239
:1016100072656E7420636F6D6D616E643A20005068
:101620006C65617365207265736574005052494E34
:101630005445522048414C544544005072696E74E0
:1016400065722068616C7465642E206B696C6C280F
:10165000292063616C6C6564210A00656E71756593
:101660007565696E67202200000000000000000020
:10167000000000005761726E696E673A20486F6D16
:10168000696E672042756D702044697669736F7268
:10169000203C20310A000202040000A0400000A00B
:1016A000400000004000005C4300005C43000082FA
:1016B00043FFFFFF7C3C3E5E2B3D3F2F5B5D3B2CA1
:1016C0002A225C004572726F722077726974696EAB
:1016D0006720746F20454550524F4D210A00454503
:1016E00050524F4D206461746173697A6520657250
:1016F000726F722E0A00290A002062797465733BAA
:1017000020637263200053657474696E677320539D
:10171000746F726564202800290A0020627974655C
:10172000733B2063726320002073746F72656420C2
:1017300073657474696E6773207265747269657617
:101740006564202800202863616C63756C61746592
:101750006429210A0020213D2000454550524F4D6B
:1017600020435243206D69736D61746368202D209E
:101770002873746F7265642920002053697A653A72
:101780002000496E6465783A2000204D61726C69D2
:101790006E3D563535290A0028454550524F4D3D7E
:1017A00000454550524F4D2076657273696F6E202B
:1017B0006D69736D6174636820004E6F20436865C6
:1017C000636B73756D2077697468206C696E652032
:1017D0006E756D6265722C204C617374204C696E5D
:1017E000653A20004B494C4C45442E200053544F41
:1017F000505045442E20005072696E7465722073FB
:10180000746F707065642064756520746F206572F4
:10181000726F72732E204669782074686520657235
:10182000726F7220616E6420757365204D3939398D
:1018300020746F20726573746172742E2028546551
:101840006D7065726174757265206973207265735D
:1018500065742E2053657420697420616674657206
:101860002072657374617274696E67290A004E6F25
:1018700020436865636B73756D2077697468206CAD
:10188000696E65206E756D6265722C204C61737493
:10189000204C696E653A2000636865636B73756DF3
:1018A000206D69736D617463682C204C61737420C2
:1018B0004C696E653A20004C696E65204E756D620C
:1018C0006572206973206E6F74204C617374204CB4
:1018D000696E65204E756D6265722B312C204C61EE
:1018E0007374204C696E653A20004D313130004DE3
:1018F00033310053442072656164206572726F72E7
:101900000A00446F6E65207072696E74696E67209C
:1019100066696C650A0020496E76616C69642065B1
:101920007874727564657220000000000000000089
:10193000000000000000005C4300005C43000082E7
:1019400043486F6D696E67206661696C656400204D
:101950006E6F7420656E74657265642E0A00436C48
:1019600069636B20746F20726573756D652E2E2E02
:10197000004E6F206D6F76652E00456E642066699F
:101980006C65206C6973740A00426567696E206635
:10199000696C65206C6973740A0050726F746563BA
:1019A0007465642050696E0A0024F4D43050C38EEC
:1019B00020C2A24017828B7011127A910D816CD9CE
:1019C0000AA861E108C7586607615143061E4B5DCE
:1019D00005C145A7041A411104093D980371393125
:1019E000034036DB0265339102D4305402802E1D51
:1019F00002632CEE01752AC501B028A001102781D1
:101A0000018F2564012B244B01E0223401AC211FFE
:101A1000018D200D01801FFC00841EED00971DDF4D
:101A200000B81CD200E61BC600201BBC00641AB222
:101A300000B219A8000A19A0006A189900D11791DC
:101A40000040178B00B516840031167E00B315795F
:101A5000003A157300C7146F0058146A00EE13663D
:101A6000008813630025135E00C7125B006C1257D9
:101A70000015125400C111510070114F0021114B7B
:101A800000D61049008D1047004610440002104255
:101A900000C00F4000800F3E00420F3C00060F3B8D
:101AA00000CB0E3800930E37005C0E3500270E3445
:101AB00000F30D3200C10D3100900D3000600D2E8D
:101AC00000320D2D00050D2C00D90C2B00AE0C2979
:101AD00000850C29005C0C2700350C27000E0C2615
:101AE00000E80B2400C40B2400A00B23007D0B2373
:101AF000005A0B2100390B2100180B2000F80A1F97
:101B000000D90A1E00BB0A1E009D0A1D00800A1D86
:101B100000630A1C00470A1B002C0A1B00110A1A4A
:101B200000F7091A00DD091900C4091900AB0919E9
:101B300000920917007B091800630917004C091669
:101B40000036091600200916000A091500F50815C7
:101B500000E0081400CC081400B8081400A408140D
:101B600000900813007D0812006B0813005808123B
:101B70000046081200340811002308110012081151
:101B80000001081100F0071000E0071000D0071056
:101B900000C0071000B0070F00A107100091070E4A
:101BA0000083070F0074070F0065070E0057070E2C
:101BB0000049070E003B070D002E070E0020070D01
:101BC0000013070D0006070D00F9060C00ED060DC9
:101BD00000E0060C00D4060C00C8060C00BC060C85
:101BE00000B0060C00A4060B0099060C008D060B35
:101BF0000082060B0077060B006C060B0061060ADC
:101C00000057060B004C060A0042060A0038060A76
:101C1000002E060A0024060A001A060A0010060909
:101C20000007060A00FD050900F4050900EB050997
:101C300000E2050900D9050900D0050900C705091A
:101C400000BE050900B5050800AD050800A5050999
:101C5000009C050800940508008C05080084050810
:101C6000007C050800740508006C05070065050880
:101C7000005D050700560508004E050700470507EB
:101C8000004005080038050700310507002A050750
:101C900000230507001C050600160507000F0507B1
:101CA000000805060002050700FB040600F504070E
:101CB00000EE040600E8040600E2040700DB040668
:101CC00000D5040600CF040600C9040600C30406BC
:101CD00000BD040600B7040600B1040500AC04060C
:101CE00000A6040600A00405009B04060095040558
:101CF00000900406008A040500850405008004069F
:101D0000007A04050075040500700405006B0405E5
:101D10000066040500610405005C04050057040525
:101D200000520405004D0405004804050043040565
:101D3000003E0404003A04050035040500300404A4
:101D4000002C04050027040400230405001E0404DD
:101D5000001A04040016040500110404000D040414
:101D600000090405000404040000040400FC03044A
:101D700000F8030400F4030400F0030400EC03047F
:101D800000E8030400E4030400E0030400DC0304AF
:101D900000D8030400D4030400D0030400CC0304DF
:101DA00000C8030300C503030024F404D9201BC4A6
:101DB0000C5C0E9804C4095F0265077101F405F913
:101DC00000FB04B30048048700C1036900580355B1
:101DD0000003034500BE023A008402310053022A88
:101DE000002902250004022000E4011C00C801199A
:101DF00000AF011700980114008401130071011055
:101E0000006101100051010E0043010D0036010B6D
:101E1000002B010B0020010B00150109000C01092A
:101E20000003010800FB000800F3000800EB0007B6
:101E300000E4000600DE000600D8000600D200061E
:101E400000CC000500C7000500C2000500BD00046D
:101E500000B9000400B5000400B1000400AD0004A6
:101E600000A9000400A5000300A20003009F0004D5
:101E7000009B0003009800030095000200930003FC
:101E800000900003008D0002008B00030088000218
:101E9000008600020084000300810002007F00022F
:101EA000007D0002007B0002007900020077000143
:101EB000007600020074000200720001007100024E
:101EC000006F0002006D0001006C0002006A00015A
:101ED0000069000200670001006600010065000162
:101EE0000064000200620001006100010060000166
:101EF000005F0002005D0001005C0001005B00016A
:101F0000005A00010059000100580001005700016B
:101F1000005600010055000100540001005300006C
:101F20000053000100520001005100010050000167
:101F3000004F0001004E0000004E0001004D000166
:101F4000004C0001004B0000004B0001004A000162
:101F5000004900010048000000480001004700015E
:101F60000046000000460001004500000045000159
:101F70000044000100430000004300010042000053
:101F8000004200010041000000410001004000014A
:101F9000003F0000003F0001003E0000003E000145
:101FA000003D0000003D0001003C0000003C00003E
:101FB000003C0001003B0000003B0001003A000033
:101FC000003A00010039000000390001003800002B
:101FD0000038000000380001003700000037000121
:101FE0000036000000360000003600010035000019
:101FF000003500000035000100340000003400000E
:102000000034000100330000003300000033000101
:1020100000320000003200000032000100310000F8
:1020200000310000003100010030000000300000ED
:1020300000300001002F0000002F0000002F0000E2
:10204000002F0001002E0000002E0000002E0001D5
:10205000002D0000002D0000002D0000002D0001CB
:10206000002C0000002C0000002C0000002C0001BF
:10207000002B0000002B0000002B0000002B0001B3
:10208000002A0000002A0000002A0000002A0001A7
:10209000002900000029000000290000002900009C
:1020A000002900010028000000280000002800008E
:1020B0000028000000280001002700000027000081
:1020C0000027000000270000002700010026000074
:1020D0000026000000260000002600000026000167
:1020E000002500000025000000250000002500005C
:1020F000002500000025000100240000002400004D
:10210000002400000024000000240001002300003F
:102110000023000000230000002300000023000033
:102120000023000000230001002200000022000024
:102130000022000000220000002200000022000116
:10214000002100000021000000210000002100000B
:1021500000210000002100000021000100200000FB
:1021600000200000002000000020000000200000EF
:10217000002000000020000000200001001F0000DF
:10218000001F0000001F0000001F0000001F0000D3
:10219000001F0000001F0001001E0000001E0000C4
:1021A000001E0000001E000000043700001E290071
:1021B00000511B00005810000010090000CC040062
:1021C00000780200004101000020746F6F206C6FE6
:1021D0006E6720657874727573696F6E20707265B2
:1021E00076656E7465640A0020636F6C64206578A0
:1021F00074727573696F6E2070726576656E746542
:10220000640A006265640A002C2073797374656D3A
:102210002073746F70706564212048656174657205
:102220005F49443A20004265642068656174696EC4
:1022300067206661696C65640048656174696E67F2
:10224000206661696C656400453120486561746988
:102250006E67206661696C65640048656174696ECB
:1022600067206661696C65640070012C019001272C
:1022700001B0012201C0011D01F00118011002137B
:102280000130020E016002090190020401C002FF48
:10229000000003FA004003F5008003F000D003EBD8
:1022A000002004E6007004E100E004DC004005D7F3
:1022B00000C005D2004006CD00D006C8008007C38C
:1022C000003008BE00F008B900C009B400B00AAF81
:1022D00000B00BAA00D00CA500000EA000500F9B70
:1022E00000C01096005012910000148C00C0158799
:1022F00000B0178200B0197D00D01B7800001E735B
:102300000040206E0090226900F024640040275FA6
:102310000090295A00E02B5500102E500020304B21
:102320000010324600E033410090353C0010373752
:102330000070383200A0392D00B03A2800A03B23AD
:1023400000603C1E00103D1900903D1400103E0F2F
:1023500000703E0A00C03E0500003F0000403FFB09
:10236000FF803FF6FFC03FF1FF4531205448455202
:102370004D414C2052554E41574159004245442051
:10238000544845524D414C2052554E4157415900F9
:10239000546865726D616C2052756E617761790069
:1023A0004531204572723A204D415854454D5000F8
:1023B0004572723A204D415854454D502042454493
:1023C000004D415854454D502074726967676572DD
:1023D0006564004531204572723A204D494E54459E
:1023E0004D50004572723A204D494E54454D502093
:1023F000424544004D494E54454D50207472696722
:102400006765726564004D383420582059205A2081
:102410004500202F002042403A0020403A00565408
:10242000726176206D696E005654726176206D6916
:102430006E005654726176206D696E00566D696E3D
:1024400000566D696E00566D696E00566D6178209C
:102450004500566D6178204500566D617820450035
:10246000566D6178205A00566D6178205A00566D7D
:102470006178205A00566D6178205900566D617858
:10248000205900566D6178205900566D61782058AA
:1024900000566D6178205800566D61782058004DC7
:1024A0006F74696F6E00416D6178204500416D6108
:1024B00078204500416D6178205A00416D61782097
:1024C0005A00416D6178205900416D6178205900B2
:1024D000416D6178205800416D6178205800412D90
:1024E00074726176656C00412D74726176656C0062
:1024F000412D7265747261637400412D726574724E
:1025000061637400416363656C00416363656C00E3
:102510004D6F74696F6E0056652D6A65726B00565B
:10252000652D6A65726B0056652D6A65726B005683
:102530007A2D6A65726B00567A2D6A65726B005649
:10254000792D6A65726B0056792D6A65726B00563B
:10255000792D6A65726B0056782D6A65726B00562C
:10256000782D6A65726B0056782D6A65726B004D26
:102570006F74696F6E0000002100240027002A009C
:102580002D003000330001010000040107010A01A1
:1025900000002200250028002B002E00310034000E
:1025A00002010000050108010B0143616E6E6F74AA
:1025B000206F70656E2073756264697220006563B8
:1025C000686F3A00413130204F66662E00205A3A3B
:1025D0000020593A0020436F756E7420583A00204D
:1025E000453A00205A3A0020593A00583A003A0039
:1025F0004361703A00544845524D414C5F50524F30
:1026000054454354494F4E004155544F5245504F45
:1026100052545F53445F53544154555300454D4504
:102620005247454E43595F50415253455200434132
:1026300053455F4C494748545F4252494748544EBE
:1026400045535300544F47474C455F4C4947485406
:102650005300534F4654574152455F504F574552D0
:10266000004255494C445F50455243454E54004C3E
:102670004556454C494E475F44415441005A5F50CE
:10268000524F4245004155544F4C4556454C005021
:1026900052494E545F4A4F420050524F47524553A1
:1026A00053004155544F5245504F52545F54454D7D
:1026B0005000564F4C554D455452494300454550E6
:1026C000524F4D0053455249414C5F584F4E5F5851
:1026D0004F4646004649524D574152455F4E414D87
:1026E000453A4D61726C696E20312E312E392028A9
:1026F0004769746875622920534F555243455F43BB
:102700004F44455F55524C3A68747470733A2F2F9A
:102710006769746875622E636F6D2F556C74696D8F
:10272000616B65722F4D61726C696E2050524F540F
:102730004F434F4C5F56455253494F4E3A312E301E
:10274000204D414348494E455F545950453A413127
:10275000302045585452554445525F434F554E54CE
:102760003A3120555549443A3030303030303030ED
:102770002D303030302D303030302D303030302D65
:102780003030303030303030303030300A002F2FA1
:1027900020004F66660A00466164652048656967E7
:1027A00068742000426564204C6576656C696E67CC
:1027B00020004661696C656420746F20656E6162FB
:1027C0006C6520426564204C6576656C696E670AAD
:1027D000004D65736820426564204C6576656C2009
:1027E000646174613A0A0025753A25303275002516
:1027F0003032753A25303275002D2D2D00534400AE
:1028000020202020202000202020200041313020C6
:1028100052656164792E005072696E74696E672E1C
:102820002E2E005072696E7420706175736564009D
:102830005072696E742061626F72746564004E6FCD
:102840002053442063617264005072696E74206684
:10285000726F6D2053440053746F70207072696EF4
:102860007400526573756D65207072696E740041F5
:10287000626F7574205072696E7465720050617574
:102880007365207072696E7400436F6E74726F6C42
:1028900000507265706172650054756E6500496E16
:1028A000666F2073637265656E00466C6F770046D5
:1028B0006C6F770046616E207370656564004661D9
:1028C0006E20737065656400426564004265640053
:1028D0004E6F7A7A6C65004E6F7A7A6C650046614D
:1028E00064652048656967687400466164652048CE
:1028F000656967687400426564205A004265642017
:102900005A005370656564005370656564004D61DD
:10291000696E0048617264636F6465642044656633
:1029200061756C742053657474696E6773204C6FA5
:10293000616465640A008813000088130000320097
:102940000000881300000000C8430000C8430000D6
:10295000C843000034420000A0420000A042000032
:10296000C8430000BA4220286D6D29002044002091
:10297000490020204D33303120500050494420730D
:10298000657474696E67733A0A002046002042003D
:1029900020480020204D3134352053004D617465AE
:1029A0007269616C20686561747570207061726114
:1029B0006D65746572733A0A00205A002059002030
:1029C00020473239205333205800205A0020204D10
:1029D0003432302053004D65736820426564204CCA
:1029E0006576656C696E673A0A00205A00205900C6
:1029F00020204D323036205800486F6D65206F66BC
:102A0000667365743A0A00204500205A0020590078
:102A100020580020540020530020204D3230352013
:102A2000420020453C6D61785F655F6A65726B3E70
:102A30000020583C6D61785F785F6A65726B3E205C
:102A4000593C6D61785F795F6A65726B3E205A3CD4
:102A50006D61785F7A5F6A65726B3E004164766192
:102A60006E6365643A20423C6D696E5F7365676DA5
:102A7000656E745F74696D655F75733E20533C6D60
:102A8000696E5F66656564726174653E20543C6D75
:102A9000696E5F74726176656C5F666565647261AC
:102AA00074653E0020540020520020204D32303406
:102AB000205000416363656C65726174696F6E20BC
:102AC00028756E6974732F7332293A20503C7072E6
:102AD000696E745F616363656C3E20523C7265741D
:102AE000726163745F616363656C3E20543C747211
:102AF0006176656C5F616363656C3E0A002045002A
:102B0000205A0020590020204D3230312058004DED
:102B10006178696D756D20416363656C6572617480
:102B2000696F6E2028756E6974732F7332293A0AA3
:102B300000204500205A0020590020204D3230331B
:102B40002058004D6178696D756D20666565647209
:102B5000617465732028756E6974732F73293A0A3E
:102B600000204500205A0020590020204D393220F5
:102B7000580053746570732070657220756E6974A7
:102B80003A0A0020204D3230302044300A00202004
:102B90004D3230302044002044697361626C6564BA
:102BA0000A0046696C616D656E74207365747469A2
:102BB0006E67733A0020204D3134392043203B208A
:102BC000556E69747320696E2043656C7369757303
:102BD0000A002020473231202020203B000A4D658A
:102BE00061737572656420706F696E74733A0A0060
:102BF0005A206F66667365743A20004E756D2058D2
:102C00002C593A20332C330A00526573656E643AAE
:102C100020006F6B0020746F6F206C6F6E672065F3
:102C20007874727573696F6E2070726576656E74F4
:102C300065640A0020636F6C642065787472757334
:102C4000696F6E2070726576656E7465640A004DFA
:102C50006F76652058004D6F76652059004D6F7670
:102C600065205A004578747275646572004D6F7600
:102C70006520302E316D6D004D6F766520316D6DA4
:102C8000004D6F76652031306D6D004D6F7665209B
:102C900061786973004578747275646572004D6F70
:102CA0007665205A004D6F76652059004D6F766528
:102CB000205800008CFAE9F911241FBECFEFD1E2B1
:102CC000DEBFCDBF00E00CBF13E0A0E0B2E0E4E95E
:102CD000F5E102E00BBF02C007900D92A034B107EE
:102CE000D9F723E1A0E4B3E001C01D92AE38B207EA
:102CF000E1F716E1CBE5D6E100E006C02197010936
:102D0000802FFE010F94220ACA35D10780E0080700
:102D1000A9F70E9499F40D94B90A0C9400002F921F
:102D20003F924F925F926F927F928F929F92AF925B
:102D3000BF92CF92DF92EF92FF920F931F93CF93A8
:102D4000DF93CDB7DEB7CD56D1090FB6F894DEBF0D
:102D50000FBECDBF11E0109366088091C8128D346C
:102D600009F421C5843511F40C94592C873411F0E1
:102D70000C949D2C8091C6129091C7128A319105B6
:102D800009F402C284F4843091054CF48230910538
:102D90003CF597FD04C50E94CB930C949F2C04979F
:102DA00009F4B4C1FCC48A32910509F4F3C344F4B4
:102DB0008C31910509F4ECC14D9709F4EEC1EFC4D3
:102DC0008B35910509F475C48C35910509F475C4EA
:102DD0008A35910509F0E3C4109245030C949F2CA9
:102DE00020912C02222311F40C949F2C11E00297C5
:102DF00009F010E00E94189319821A821B821C822B
:102E00001D821E821F82188682E50E94F139882366
:102E100009F42CC10E9477396B017C0120911504C3
:102E20003091160440911704509118042AA33BA333
:102E30004CA35DA38090190490901A04A0901B04E9
:102E4000B0901C044091290450912A0460912B04F5
:102E500070912C044EA35FA368A779A760912D04FD
:102E600070912E0480912F04909130046AA77BA763
:102E70008CA79DA720E030E0A901C701B6010F94FF
:102E8000BC02882309F408C12AA13BA14CA15DA181
:102E90006EA17FA188A599A50F94BC0281110BC0DA
:102EA000A50194016AA57BA58CA59DA50F94BC02E4
:102EB000882309F4F1C020E030E0A901C701B60180
:102EC0000F94BC02881F8827881F181309C080E050
:102ED00090E0A0E8BFE38AAF9BAFACAFBDAF08C046
:102EE00020E030E040E85FEB2AAF3BAF4CAF5DAF96
:102EF0002AA13BA14CA15DA16EA17FA188A599A5A6
:102F00000F9425076AAB7BAB8CAB9DABA5019401FD
:102F10006AA57BA58CA59DA50F9425076EAB7FABFD
:102F200088AF99AF2AA93BA94CA95DA9CA01B901EB
:102F30000F9421032B013C012EA93FA948AD59ADA7
:102F4000CA01B9010F9421039B01AC01C301B20175
:102F50000F9426070F9491096EA77FA788AB99ABB2
:102F600020E030E040E05FE30F9421032B013C01BF
:102F7000A7019601C701B6010F9421036B017C01E3
:102F8000A3019201C301B2010F9421039B01AC0183
:102F9000C701B6010F9425070F9491099B01AC015D
:102FA0006AAD7BAD8CAD9DAD0F9421036B017C01AF
:102FB0002EA13FA148A559A56AA17BA18CA19DA1E5
:102FC0000F94260720E030E040E05FE30F942103F8
:102FD0002B013C016EA97FA988AD99AD90582EA513
:102FE0003FA548A959A90F9402089B01AC01C7014C
:102FF000B6010F9421039B01AC01C301B2010F94F0
:1030000026072AA13BA14CA15DA10F942507698346
:103010007A838B839C832AA53BA54CA55DA5C5011E
:10302000B4010F94260720E030E040E05FE30F9406
:1030300021032B013C012EA53FA548A959A96AA946
:103040007BA98CA99DA90F9402089B01AC01C70123
:10305000B6010F9421039B01AC01C301B2010F948F
:103060002607A50194010F94250712C089E40E9448
:10307000F139882331F00E94773969837A838B8311
:103080009C838AE40E94F139882331F00E947739C9
:103090006D837E838F83988720E030E0A90169816A
:1030A0007A818B819C810F94BC0281110BC020E03E
:1030B00030E0A9016D817E818F8198850F94BC02DB
:1030C000882351F0412FBE016F5F7F4F89E294E06A
:1030D0000E9435790C949F2CE2ECFCE084918F01E6
:1030E0000F5F1F4F882321F00E940038F801F6CFB0
:1030F000E9EDF1E084918F010F5F1F4F882311F4F8
:103100000C949F2C0E940038F801F4CF80E50E94B7
:10311000F139882329F00E942A376B017C0103C012
:10312000C12CD12C760183E50E94F139882361F00E
:103130000E94773920E030E04AE754E40F942103FD
:103140000F946F086B017C010E9406E580911E0FB1
:10315000811105C060E08FEE91E00E94175F0E9430
:1031600080C5C60ED71EE81EF91E0E9480C5DC0170
:10317000CB018C199D09AE09BF09B7FD02C00C94A3
:103180009F2C0E94F475F1CF0E94493B0C949F2C18
:1031900080E00E9411990C949F2C83E50E94F139E4
:1031A000882311F10E945739863070F0EAEAF2E084
:1031B00084918F010F5F1F4F882311F40C949F2C73
:1031C0000E940038F801F4CF833009F458C134F478
:1031D000813071F1823009F43FC006C0843009F4B7
:1031E000B0C1853009F4BDC10E94D393882399F002
:1031F00080915406811103C062E173E002C06EE069
:1032000073E082E892E00E94A3A28AE00E94003864
:103210000E9474E9BBC1EAE8F2E084918F010F5F7C
:103220001F4F882309F4B2C10E940038F801F5CF7E
:103230000E9428EA109201021092000280914B062F
:1032400081110AC087E792E09093E7038093E60339
:103250000E94DA950C949F2C8091000290910102BB
:1032600097FF0EC0EEE4F2E084918F010F5F1F4FD5
:10327000882311F40C949F2C0E940038F801F4CF9D
:103280000097A1F4809149028093460319821A8223
:103290001B821C821C8E1D8E1E8E1F8EBE016F5FB8
:1032A0007F4FCE014C960E94984E2BC0815063E018
:1032B0000F94EE0980FF03C022E0291B922F292FD3
:1032C000990F330BF901EE0FFF1FE20FF31FE80F09
:1032D000F11D87FDFA95EE0FFF1FEE0FFF1FEF5751
:1032E000FD4E80911D0490911E04A0911F04B09189
:1032F000200480839183A283B383809146038093CB
:1033000049028091000290910102893091050CF0F0
:1033100067C0109249029C012F5F3F4F309301021A
:103320002093000263E00F94EE0980FF03C022E0C7
:10333000291B922F40911D0450911E0460911F047F
:10334000709120044C8F5D8F6E8F7F8F19821A824F
:103350001B821C8244E0840290011124B9016C5844
:10336000704F4B01DB012D913D914D915C91B4E08B
:103370009B02C0011124FC01E058F04F5F01608105
:10338000718182819381DE0111966D01E12CF12C16
:1033900000EA10E40E94C84D19821A821B821C8226
:1033A000B601CE014C960E94984EF5018081918124
:1033B000A281B3818093150490931604A0931704FF
:1033C000B0931804F40180819181A281B38180932C
:1033D000190490931A04A0931B04B0931C0444C0D6
:1033E00080E090E0A0EAB0E480931D0490931E0476
:1033F000A0931F04B09320040E94E2940E9406E56B
:103400008FEF9FEF9093010280930002EAE3F2E0D6
:1034100084918F010F5F1F4F882321F00E94003895
:10342000F801F6CF83E992E09A83898304E610E0FD
:103430001D8F0C8FBE016F5F7F4FCE014C960E9497
:103440006BCC8AEB92E09A8389831D8F0C8FBE012F
:103450006F5F7F4FCE014C960E946BCC81E00E9443
:10346000119981E00E94039410924B066091000232
:1034700070910102693071050CF47BC078C088E559
:103480000E94F1398823A1F00E9447391FEF160FDF
:103490001330A8F0E3E2F2E084918F010F5F1F4F39
:1034A000882311F40C949F2C0E940038F801F4CF6B
:1034B00088E50E9400380E9425FA0C949F2C89E52B
:1034C0000E94F1398823A1F00E9447390FEF060FBF
:1034D0000330A8F0ECE0F2E084918F010F5F1F4F02
:1034E000882311F40C949F2C0E940038F801F4CF2B
:1034F00089E50E9400380E9425FA0C949F2C8AE5E9
:103500000E94F1398823B1F00E947739212F30E0F1
:10351000F901EE0FFF1FE20FF31FE00FF11DEE0F99
:10352000FF1FEE0FFF1FEF57FD4E608371838283F5
:1035300093832CC08AE50E9400380E9425FA0C94DF
:103540009F2C8AE50E94F1398823A1F30E947739E4
:1035500060934C0670934D0680934E0690934F06F1
:1035600015C080E00E9403940E9428EA0FC069E021
:1035700070E08DEF91E00E948AA269E070E088EF30
:1035800091E00E948AA28AE00E9400380E942CD119
:103590000C949F2C80912C02882311F40C949F2C66
:1035A00089E40E94F139F82E882321F00E944739DE
:1035B000062F01C000E08AE40E94F139E82E88233A
:1035C00031F00E944739162FF11004C00AC010E0F4
:1035D000FF20B1F0033010F40C947D31E1ECF2E007
:1035E00003C01330D8F70CC084918F010F5F1F4FB9
:1035F000882311F40C949F2C0E940038F801F4CF1A
:103600000E94FD39FF2091F024E00202F001112414
:10361000E058F04F80819181A281B3818093290489
:1036200090932A04A0932B04B0932C04EE2091F0E5
:1036300034E01302F0011124EC58F04F80819181A5
:10364000A281B38180932D0490932E04A0932F0424
:10365000B093300480E50E94F139882319F00E946C
:10366000683903C080E50E94AA3986E40E94F139D6
:103670008823D9F00E9477396B017C0120E030E08B
:10368000A9010F944C09181684F420E030E040E7BB
:1036900052E4C701B6010F940208609306027093CA
:1036A000070280930802909309020E9490EA0C940A
:1036B0009F2C109345030C949F2C60E5262E62E00E
:1036C000362E74E7C72E78E0D72EE12CF12C00E0DF
:1036D00010E0D1018D911D010E94F139882309F478
:1036E0004EC00E9477392B013C01133059F0F7018D
:1036F000E95AFC4E20813181428153810F94250784
:103700002B013C01F701EB5EFB4F208131814281AF
:103710005381C301B2010F9425074B015C012DEBCE
:1037200037E346E855EB0F944C0987FD0AC02DEBB3
:1037300037E346E855E3C501B4010F94BC021816FF
:10374000F4F4133051F44092210450922204609218
:1037500023047092240401E012C0A5019401F60133
:1037600060817181828193810F942607D6016D93C8
:103770007D938D939C931397812F0E9439951F5FA2
:10378000B4E0CB0ED11CE4E0EE0EF11C143009F0D5
:10379000A0CF002309F4FACE0E947F4DF7CE0E94FD
:1037A000934F0C949F2C8091C6129091C712813731
:1037B000910509F48FC50CF0CCC08133910509F453
:1037C000C2C30CF061C08831910509F4CFC17CF50A
:1037D0008231910509F444C684F497FF02C00C9429
:1037E000562C823091050CF4A2C1419711F00C9433
:1037F000562C0E9484920C949F2C8531910509F4DB
:103800009AC144F4449711F00C94562C0E942C92C7
:103810000C949F2C8631910509F491C1479711F0C2
:103820000C94562CE091C412F091C51292C18D31C6
:10383000910511F40C949F2CC4F48A31910509F47C
:10384000A4C10CF49CC18B31910509F4ACC14C9717
:1038500011F00C94562C40E060E08091C4129091DD
:10386000C5120E9460480C949F2C8F31910509F479
:103870001BC30CF432C28032910509F4C9C28A9785
:1038800009F43CC30C94562C8C35910509F4ECC515
:1038900084F58135910509F4D6C5C4F48C349105BD
:1038A00009F476C34CF48B34910511F00C94562C2A
:1038B0000E94CBA20C949F2C8D34910509F46CC30B
:1038C0008E34910509F46CC30C94562C8335910504
:1038D00009F4C1C50CF4BBC58435910509F4C0C514
:1038E0008535910511F00C94562C0E949AD40C94B5
:1038F0009F2C8C36910509F4E5C4C4F489369105F2
:1039000009F414C534F48836910509F44BC40C94B9
:10391000562C8A36910509F492C58B36910511F023
:103920000C94562C0E9420D50C949F2C8E36910519
:1039300009F467C40CF43CC58F36910509F474C4CE
:103940008037910511F00C94562C80EE93E00E9484
:10395000A3758D3D910511F40C9440260CF062C0C6
:103960008B39910509F4FDC444F58737910509F4B5
:103970009AC59CF48337910509F480C50CF478C589
:103980008537910509F47EC58637910511F00C94B1
:10399000562C0E948BD00C949F2C8937910509F4EA
:1039A000EDC50CF4E4C58C38910509F41DC58139C9
:1039B000910509F4E9C50C94562C8C3C910509F449
:1039C0007AC6F4F4883C910509F457C634F48E3B6A
:1039D000910509F41FC50C94562C893C910509F4F6
:1039E00050C68B3C910511F00C94562CEAECEE2E4F
:1039F000EEE0FE2E00E512E0F4E0DF2ED00E4CC625
:103A00008E3C910509F450C70CF4CDC6833D910559
:103A100011F40C9453258C3D910511F40C9433262C
:103A20000C94562C853AF1E09F0711F40C942B2B43
:103A30000CF040C08F3231E0930711F40C94F5275D
:103A4000DCF48C3251E0950711F40C94D7263CF449
:103A5000823E910511F40C94AD260C94562C8D32B7
:103A600071E0970711F40C9400278E32914011F405
:103A70000C94A1270C94562C8039B1E09B0711F4CB
:103A80000C94282B4CF48336914011F00C94562C56
:103A9000E2ECFCE00C94112B8A3921E0920709F446
:103AA00015C4843A914011F00C94562C0E9419D2FE
:103AB0000C949F2C873F41E0940711F40C94132C35
:103AC000E4F4843F61E0960711F40C940D2C34F477
:103AD0008C3A914009F40AC70C94562C853FB1E00A
:103AE0009B0711F40C94102C863F914011F00C941C
:103AF000562C0E9477E30C949F2C8B38F3E09F07A1
:103B000011F40C949F2C3CF4883F914011F40C94D8
:103B10001E2C0C94562C803A43E0940709F4B7C14C
:103B2000873E934011F40C94412C0C94562C0E9427
:103B30008E920C949F2C0E944E4A0C949F2C1092B3
:103B4000AC0F1092AD0F0C949F2C803209F41082B0
:103B5000319680818111F9CF40E061E08091C412FB
:103B60009091C5120E9460480C949F2C8091AD0FDB
:103B700081111093AC0F0E94CBA20C949F2C109239
:103B8000AC0F0E94FCBB0C949F2C8091AD0F88233E
:103B900011F40C949F2C83E50E94F13981110C944F
:103BA000A42C0C949F2C83E40E94AA39882309F446
:103BB00054C0EDE0F3E084918F010F5F1F4F882325
:103BC00021F00E940038F801F6CF80917711882308
:103BD00091F0BE016F5F7F4F84E791E10E940587FE
:103BE0008E010F5F1F4FD8018D918D01882381F1C8
:103BF0000E940038F8CFE0EEF2E084918F010F5F71
:103C00001F4F882329F10E940038F801F6CF8091D8
:103C1000330E882309F449C35BECC52E53E0D52E3F
:103C2000E12CF12C20E08091330E90E00E2C02C0AC
:103C3000959587950A94E2F780FD1FC3FFEFEF1A71
:103C4000FF0A32E0C30ED11C45E0E416F10459F737
:103C50008AE00E9400380C949F2C8091AD0F88233D
:103C600071F18091AC0F882351F1EAEEF2E084917A
:103C70008F010F5F1F4F882321F00E940038F80149
:103C8000F6CF6091251270912612809127129091A3
:103C900028124AE00E940A388FE20E9400386091A0
:103CA00021127091221280912312909124124AE0E5
:103CB0000E940A388AE00E9400380C949F2CECEF96
:103CC000F2E084918F010F5F1F4F882311F40C9451
:103CD0009F2C0E940038F801F4CF8091AD0F88230B
:103CE00011F40C949F2C84E791E10E94D47F84E727
:103CF00091E10E948D711092AB0F1092AA0F00916A
:103D0000C4121091C5128091AD0F882311F40C9448
:103D10009F2C0E945548B801CE014C960E949D47A9
:103D20008C01892B11F40C949F2C6C8D7D8D611569
:103D3000710511F06C5F7F4F19821C8222E0A8018F
:103D4000CE0101960E941686811102C0F12C1EC080
:103D5000CE0101960E94DDCC8823C1F36D857E855E
:103D60008F85988941E00E94257E882379F3E9892F
:103D7000B0E2EB9FF0011124E75CFB4F309731F389
:103D800085EE80831C820E94E57DF82ECE0101968F
:103D90000E94FA37FF2011F1ECE1F3E084917F01FA
:103DA0002FEFE21AF20A882321F00E940038F7016F
:103DB000F5CFD8018D918D01882319F00E9400382C
:103DC000F8CF8AE00E940038109225121092261235
:103DD00010922712109228120C949F2CEAE2F3E022
:103DE00084917F01BFEFEB1AFB0A882321F00E9428
:103DF0000038F701F5CFF80181918F01882319F080
:103E00000E940038F8CF8EE20E9400380C949F2C5C
:103E10008091AC0F81110E9406E58091AD0F88233F
:103E200011F40C949F2C80E50E94F139882319F03D
:103E30000E94683903C080E50E94AA39182F482FD4
:103E400061E08091C4129091C5120E94604883E5A0
:103E50000E94F139882381F00E944739AB01BC01EF
:103E600040932512509326126093271270932812C4
:103E700084E791E10E9415808091AD0F882319F0AD
:103E800081E08093AC0F11110C949F2C74CE809123
:103E9000C4129091C51221E02093AB0F40E060E086
:103EA0000E9460480C949F2C0E94C8BB6C8F7D8F31
:103EB0008E8F9F8FBE016F5F7F4FCE014C960E9409
:103EC0003A3760E0CE0101960E94515FEEEBF5E2D9
:103ED00084918F010F5F1F4F882321F00E940038CB
:103EE000F801F6CFBE016F5F7F4F82E493E00E943E
:103EF000A3A28AE00E9400380C949F2C83E50E94C4
:103F0000F139882311F40C949F2C0E945739E82E24
:103F100080E50E94F139882339F00E945739182F23
:103F200087FF03C00C949F2C1DE0EBE4F5E08DE2CD
:103F30008E0F9491191711F40C94B52C31968E13A1
:103F4000F8CF0C94B82C80914003182710934003AD
:103F5000EAE5F3E084917F012FEFE21AF20A882369
:103F600021F00E940038F701F5CF111103C0E4E5FC
:103F7000F3E002C0EFE4F3E084918F010F5F1F4F85
:103F8000882311F40C949F2C0E940038F801F4CF80
:103F90000E94FCBB0C949F2C0E9429A30C949F2C84
:103FA00083E50E94F139811103C0E3ECF3E009C01D
:103FB0000E9447396E347105C1F70E9499A30C9491
:103FC0009F2C84918F010F5F1F4F882321F00E9447
:103FD0000038F801F6CFEAEBF3E084918F010F5F30
:103FE0001F4F882321F00E940038F801F6CF60911E
:103FF00072067091730680E090E04AE00E940A38F1
:10400000EDEAF3E084918F010F5F1F4F882321F0C9
:104010000E940038F801F6CF609174067091750621
:1040200080E090E04AE00E940A38E2EAF3E08491FE
:104030008F010F5F1F4F882321F00E940038F80185
:10404000F6CF60917206709173068091740690911C
:104050007506681B790B80917006815021E030E075
:10406000823010F020E030E0621B730B80E090E0C3
:104070004AE00E940A388AE00E940038EAE9F3E048
:1040800084918F010F5F1F4F882321F00E94003819
:10409000F801F6CF8091760690917706A091780688
:1040A000B09179068C8F9D8FAE8FBF8FBE016F5FF1
:1040B0007F4FCE014C960E943A37EDE8F3E08491B1
:1040C0008F010F5F1F4F811106C0AE014F5F5F4F21
:1040D0007A018A0104C00E940038F801F0CFD801AB
:1040E0008D918D01882319F00E940038F8CF8091BE
:1040F0007A0690917B06A0917C06B0917D068C8F0C
:104100009D8FAE8FBF8FBE016F5F7F4FCE014C96EC
:104110000E943A37EDE7F3E084918F010F5F1F4F64
:10412000882321F00E940038F801F6CFF701819131
:104130007F01882319F00E940038F8CF8AE00E949E
:104140000038E5E7F3E084918F010F5F1F4F88236C
:1041500021F00E940038F801F6CFE5E6F3E0849103
:104160008F010F5F1F4F882321F00E940038F80154
:10417000F6CF20E030E04AE754E460917E0670918B
:104180007F0680918006909181060F94020842E09C
:104190000E948A388DE60E9400388AE00E9400382A
:1041A0000C949F2C88E690E00E94799581110C94E4
:1041B0009F2C8091330E83FF02C00C949F2C83E5CB
:1041C0000E94F1398823C9F00E9477390F946A0858
:1041D0007093E3036093E20380E00E94ACB60E9418
:1041E000773920E030E04AEA52E40F94BC02181616
:1041F00024F00E9429A30E9456D50E945CFA0C94D8
:104200009F2C8EE40E94F139882311F40C949F2C8A
:104210000E9447396093460670934706809348068C
:10422000909349060C949F2C83E50E94AA39882319
:1042300059F083E50E94F139882319F00E9457391B
:1042400001C080E08093330EEEEBF5E284918F01A4
:104250000F5F1F4F882321F00E940038F801F6CF2E
:10426000E9EDF3E084918F010F5F1F4F882309F47C
:10427000CECC0E940038F801F5CFBB24B394B20E27
:10428000222319F08CE20E940038F6012591349126
:10429000F901849189010F5F1F4F882321F00E944B
:1042A00000389801F5CF2B2DC9CCE5EDF3E08491D2
:1042B0008F010F5F1F4F882309F4CACC0E9400387A
:1042C000F801F5CF109211020C949F2C0E9498CF08
:1042D0000C949F2C83E50E94F139882369F00E9499
:1042E00057398D3320F4809320020C949F2C8CE35B
:1042F000809320020C949F2CEEEBF5E284918F01C9
:104300000F5F1F4F882321F00E940038F801F6CF7D
:104310004091200250E060E070E089EE93E00E945E
:1043200050A28AE00E9400380C949F2C89E690E00D
:104330000E947995811111C0E0EFF3E084918F0123
:104340000F5F1F4F882321F00E940038F801F6CF3D
:104350000E94A7B58AE00E940038109266080C946B
:10436000843183E50E94F139882311F40C949F2C49
:104370000E945739182F8D3308F01CE310937308EF
:104380000E9480C56B017C01212F30E0A8EEB3E0D4
:104390000F941607C60ED71EE81EF91EC0926F08AE
:1043A000D0927008E0927108F09272080C949F2CE1
:1043B0008DE690E00E94799581110C949F2C80915C
:1043C000330E83FF02C00C949F2C83E50E94F139C9
:1043D0008AA381110C94CC2C82E50E94F1398111C1
:1043E0000C94CC2C0C949F2C8091330E83FF02C034
:1043F0000C949F2C83E50E94F139882311F40C94CE
:104400009F2C0E9477390F946A08CB010E9439399A
:104410000C949F2C8091330E83FF02C00C949F2C30
:1044200083E50E94F1398AAF81110C94622E82E5F6
:104430000E94F13981110C94622E0C949F2C0E94E1
:104440002FD50C949F2C0E940BD50C949F2C10926E
:1044500044030C949F2C81E0809344030C949F2C84
:104460000E94B2D40C949F2C0E94FCD30C949F2CDD
:104470000E9406E50E942CD10C949F2C0E94DDD056
:104480000C949F2C8091C4129091C512DC012C9148
:10449000211104C00E9456D50C949F2C60E00E940C
:1044A000515F0C949F2CEBE4F4E084918F010F5F3B
:1044B0001F4F882321F00E940038F801F6CFE3E473
:1044C000F4E084918F010F5F1F4F882321F00E9439
:1044D0000038F801F6CF029B03C006E113E002C0EA
:1044E0000BE113E0F80181918F01882319F00E94FC
:1044F0000038F8CF8AE00E940038EBE3F4E08491C2
:104500008F010F5F1F4F882321F00E940038F801B0
:10451000F6CF069B03C006E113E002C00BE113E0F7
:10452000D8018D918D01882319F00E940038F8CFB1
:104530008AE00E940038E3E3F4E084918F010F5F8A
:104540001F4F882321F00E940038F801F6CF379BD7
:1045500003C006E113E002C00BE113E0F801819112
:104560008F01882309F474CB0E940038F7CF81E0D3
:1045700080938306809382060C949F2C109283066E
:10458000109282060C949F2C83E50E94F1398823B7
:1045900019F00E94473902C060E070E08B011127DA
:1045A00002301105D4F0E2ECFCE084918F010F5F42
:1045B0001F4F882321F00E940038F801F6CFE5E66E
:1045C000F4E084918F010F5F1F4F882311F40C9446
:1045D0009F2C0E940038F801F4CF88E40E94F13942
:1045E0008823A1F00E9447396A3A710534F06C3E85
:1045F00071052CF06BEE70E002C06AEA70E0F80121
:10460000EE0FFF1FEF5AF74F7183608386E40E941D
:10461000F1398823A9F00E944739F801EE0FFF1FF6
:10462000EB5AF74F718360836F3F710519F014F0F7
:104630006FEF70E077FF02C060E070E0718360832D
:1046400082E40E94F139882311F40C949F2C0E947B
:1046500047396530710534F0663571052CF065E534
:1046600070E002C065E070E0000F111FF801E35B2D
:10467000F74F718360830C949F2C0E9442D00C945E
:104680009F2C0E941DD00C949F2CF4E0EF0EF11C87
:10469000D01611F40C949F2CD8018D918D010E949D
:1046A000AA39882391F30E947739F70160837183D7
:1046B00082839383EACF83E50E94F1398823A1F0B6
:1046C0000E9477396093F20E7093F30E8093F40E8C
:1046D0009093F50E6093EA0E7093EB0E8093EC0EC0
:1046E0009093ED0E10E001C011E080E50E94F139D9
:1046F000882359F00E9477396093F20E7093F30E7D
:104700008093F40E9093F50E10E082E50E94F1394B
:10471000882359F00E9477396093EE0E7093EF0E64
:104720008093F00E9093F10E10E084E50E94F13931
:10473000882361F00E9477396093EA0E7093EB0E44
:104740008093EC0E9093ED0E0C949F2C112311F49A
:104750000C949F2C4091F20E5091F30E6091F40E48
:104760007091F50E8DE894E00E946DA24091EE0EDE
:104770005091EF0E6091F00E7091F10E8AE894E086
:104780000E946DA24091EA0E5091EB0E6091EC0EEA
:104790007091ED0E87E894E00E946DA28AE00E947D
:1047A00000380C949F2C82E40E94AA39882351F08F
:1047B0000E942A3760932E0E70932F0E8093300E36
:1047C0009093310E83E50E94AA39882351F00E940C
:1047D00077396093C60E7093C70E8093C80E90937E
:1047E000C90E84E50E94AA39882351F00E947739C6
:1047F0006093C20E7093C30E8093C40E9093C50E47
:1048000088E50E94AA39882351F00E947739609385
:10481000F60E7093F70E8093F80E9093F90E89E5DB
:104820000E94AA39882351F00E9477396093FA0ECA
:104830007093FB0E8093FC0E9093FD0E8AE50E9410
:10484000AA398823F1F00E9477396093FE0E7093A5
:10485000FF0E8093000F9093010F2DEC3CEC4CEC7D
:104860005DE30F94BC02181664F0EDE9F4E0849166
:104870008F010F5F1F4F882321F00E940038F8013D
:10488000F6CF85E40E94AA39882311F40C949F2C5A
:104890000E9477396093020F7093030F8093040F87
:1048A0009093050F0C949F2C60E5C62E62E0D62EE7
:1048B00075E8E72E76E0F72E10E0D6018D916D01B8
:1048C0000E94AA39882351F00E947739F70160834A
:1048D000718382839383812F0E9439951F5FF4E057
:1048E000EF0EF11C133049F70C94C61A0E94CF4EFC
:1048F00081110C949F2C58E6852E56E1952E25E1CA
:1049000034E03BA32AA3AE014F5F5F4F5A0101EB96
:1049100016E11A0153E0500F5EA3F4016591759101
:1049200085919491AAA1BBA1CD90DD90ED90FD90D1
:10493000BBA3AAA3A70196010F9425072B013C0155
:1049400020E030E040EA51EC0F944C0987FD10C0A4
:1049500020E030E040EA51E4C301B2010F94BC0210
:10496000181634F0F10140825182628273820DC0C8
:10497000F80184911816B4F7F7FAF094F7F8F09468
:10498000F101C082D182E282F382D101CD90DD902B
:10499000ED90FD901D0120E030E040EA51ECC701B0
:1049A000B6010F944C0987FF03C0E2ECFCE00BC09A
:1049B00020E030E040EA51E4C701B6010F94BC02A8
:1049C000181674F5F2CF84918F010F5F1F4F882363
:1049D00021F00E940038F801F6CFEDEEF4E084916A
:1049E0008F010F5F1F4F882321F00E940038F801CC
:1049F000F6CF61E08FED94E00E94175F0E942BD606
:104A000088E290E09D8F8C8F88EC90E099A388A33A
:104A1000BE01645E7F4FCE0180960E946BCC8FC733
:104A2000B4E08B0E911C0F5F1F4FEEA1E01375CF0A
:104A300045E8E42E46E0F42E10E0F50181919191D5
:104A4000A191B1915F01F70181939193A193B193EA
:104A50007F01812F0E9439951F5F133071F70E94EB
:104A60002CD160E08FEC94E00E94175F83E992E024
:104A700099A388A304E610E01D8F0C8FBE01605E31
:104A80007F4FCE014C960E946BCC8AEB92E099A3AB
:104A900088A31D8F0C8FBE01605E7F4FCE014C96A8
:104AA0000E946BCC4CC7EEEBF5E284918F010F5F57
:104AB0001F4F882321F00E940038F801F6CF83E5CC
:104AC0000E94AA39882321F00E9468398093490204
:104AD000E3E3F5E084918F010F5F1F4F882321F0FE
:104AE0000E940038F801F6CF80914902811103C07D
:104AF000EFE2F5E002C0EBE2F5E084918F010F5F99
:104B00001F4F882321F00E940038F801F6CFE3E21E
:104B1000F5E084918F010F5F1F4F882321F00E94E1
:104B20000038F801F6CF2091571330915813409177
:104B3000591350915A1360916313709164138091CB
:104B40006513909166130F942607AB01BC0181E2B7
:104B500095E00E946DA220915B1330915C1340910F
:104B60005D1350915E13609167137091681380918B
:104B7000691390916A130F942607AB01BC018EE173
:104B800095E00E946DA220915F13309160134091D7
:104B900061135091621360916B1370916C1380914B
:104BA0006D1390916E130F942607AB01BC018BE13E
:104BB00095E00E946DA2E3E1F5E084918F010F5F23
:104BC0001F4F882321F00E940038F801F6CF209172
:104BD0005713309158134091591350915A136091C3
:104BE0003D0270913E0280913F02909140020F94ED
:104BF0002607AB01BC0181E195E00E946DA22091E6
:104C00005B1330915C1340915D1350915E13609182
:104C100041027091420280914302909144020F94AC
:104C20002607AB01BC018EE095E00E946DA22091A9
:104C30005F13309160134091611350916213609142
:104C400045027091460280914702909148020F946C
:104C50002607AB01BC018BE095E00E946DA28AE0C3
:104C60000E9400386CC683E50E94F139882309F45C
:104C700066C60E94473970933802609337025FC658
:104C80008DED90E00E947995811159C683E50E94CF
:104C9000F1398823D1F10091700E10E00E9447395C
:104CA000000F111FF801EB5CFD4F71836083809151
:104CB000700E90E07C01EE0CFF1CEE0CFF1C8701D7
:104CC0000F5C1D4F880F991FFC01EB5CFD4F60814D
:104CD0007181072E000C880B990B0F94C2022AE0F9
:104CE00037ED43E25CE30F942103F701E059FD4EF9
:104CF00020813181428153810F942103D8016D932A
:104D00007D938D939C9313971AC6EEEBF5E28491F5
:104D10008F010F5F1F4F882321F00E940038F80198
:104D2000F6CF85E40E9400388091700E805D0E946D
:104D30000038E091700EF0E0EE0FFF1FEB5CFD4FCE
:104D40006081718183E495E00E948AA285E20E94DD
:104D500000388AE00E940038F2C580E50E94AA3936
:104D6000882309F4ECC50E9447396B017C0183E577
:104D70000E94F139882321F00E9447398B0102C03B
:104D80000FEF1FEFC8010196039708F0D8C5D7FCB5
:104D9000D6C59C2DEBE4F5E08DE28E0F24919217A1
:104DA00009F4E3C531968E13F9CF0C94F52F83E502
:104DB0000E94F139882319F00E94473902C064E04B
:104DC00071E07D8F6C8F80E50E94F139882339F086
:104DD0000E9447396938B3E17B0730F402C068EEBE
:104DE00073E07A83698304C088E893E19A838983B6
:104DF000BE01645E7F4FCE0101960E946BCC9FC5C1
:104E000085E40E94F139811110C080E50E94AA3921
:104E1000882391F00E94773960933E0870933F0891
:104E2000809340089093410807C00E945739882317
:104E300061F3E2ECFCE06EC089E40E94AA398823A9
:104E400081F00E9477392CEA35EC47E25EE30F945B
:104E50002103609346087093470880934808909315
:104E6000490884E40E94AA39882381F00E94773996
:104E70002CEA35EC47E25EE30F94020860934208A7
:104E8000709343088093440890934508EEEBF5E255
:104E900084918F010F5F1F4F882321F00E940038FB
:104EA000F801F6CF40913E0850913F0860914008CC
:104EB0007091410880E895E00E946DA22CEA35ECE3
:104EC00047E25EE360914608709147088091480888
:104ED000909149080F940208AB01BC018CE795E062
:104EE0000E946DA22CEA35EC47E25EE36091420835
:104EF0007091430880914408909145080F942103D4
:104F0000AB01BC0188E795E00E946DA28AE00E9497
:104F1000003815C584918F010F5F1F4F882321F042
:104F20000E940038F801F6CFE4E8F5E084918F01A3
:104F30000F5F1F4F882309F402C50E940038F80153
:104F4000F5CF83E50E94AA39182F882371F00E94BB
:104F500077390F946A0870932B0260932A0221E03C
:104F6000672B09F020E02093320E80E50E94AA39D9
:104F7000882359F020912A0230912B02232B11F023
:104F80000E9468398093320EDAC41111D8C4EEEB56
:104F9000F5E284918F010F5F1F4F882321F00E945B
:104FA0000038F801F6CF8091320E811103C065E21E
:104FB00073E002C068E173E08BEA95E00E94A3A26F
:104FC00060912A0270912B028AE995E00E948AA2E0
:104FD000E6E9F5E084918F010F5F1F4F882309F404
:104FE000AEC40E940038F801F5CF85E40E94F13983
:104FF000882321F00E9447397B0102C0E12CF12C6B
:1050000083E40E94F139882331F00E944739629687
:105010006FAF629704C025E062962FAF629785E577
:105020000E94F139882319F00E94683903C085E590
:105030000E94AA396E968FAF6E97F7FC07C0812C3D
:10504000912CB6E1AB2EB3E4BB2E06C0812C912C83
:10505000ACE8AA2EA2E4BA2E83E50E94F139882397
:1050600021F00E9477394B015C01E114F10411F445
:105070001092700E0E9480C52B013C01EE2069F059
:10508000EDE2F7E084918F010F5F1F4F882309F451
:1050900056C40E940038F801F5CFE7E5F7E08491A7
:1050A0007F013FEFE31AF30A882321F00E940038C2
:1050B000F701F5CFC501B4010F946A08072E000C63
:1050C000880B990B0F94C2026AA77EA78AAB9EAB8E
:1050D000B301A201405E514B6F4F7F4FAA964CAF78
:1050E0005DAF6EAF7FAFAA970E94F7B68FE7809350
:1050F0006F0E81E08093110269964CAE5DAE6EAE8C
:105100007FAE6997A2964CAE5DAE6EAE7FAEA297B3
:1051100065961FAE6597A6961CAE1DAE1EAE1FAE61
:10512000A6971EAE50E423965FAF23976CE12496BA
:105130006FAF249776E425967FAF259726961FAE0E
:10514000269727961FAE279728961FAE2897299651
:105150001FAE299761961CAE1DAE1EAE1FAE6197A5
:105160002D961CAE1DAE1EAE1FAE2D97C12CD12CA0
:1051700076018FE790E0A0E0B0E08EA39FA3A8A700
:10518000B9A7FFE78F2E912CA12CB12C6D961CAEE8
:105190001DAE1EAE1FAE6D9791E064969FAF6497F3
:1051A0001BAE1AAE10E0212C312C00E06296AFADA0
:1051B00062970A2E000CBB0B6396BFAFAEAF63972E
:1051C00080911102882309F4EAC00E9480C56AA375
:1051D0007BA38CA39DA380916C0E882309F4C3C08C
:1051E0000E94B3B7109142122090431230904412A3
:1051F00000914512212F322D432D502F26966FAD51
:10520000269727967FAD279728968FAD28972996C2
:105210009FAD29970F94BC0287FF0CC026961FAF45
:10522000269727962FAE279728963FAE2897299640
:105230000FAF2997212F322D432D502F6EAD23967E
:105240007FAD239724968FAD249725969FAD259704
:105250000F944C09181654F41EAF23962FAE2397C3
:1052600024963FAE249725960FAF25976496BFAD41
:1052700064972AA53EA54AA95EA9612F722D832DA8
:10528000902FBB2309F455C00F944C0918160CF04D
:105290006AC02AA13BA14CA15DA124193509460988
:1052A0005709AE962CAF3DAF4EAF5FAFAE97DA0168
:1052B000C90188589341A109B109B7FD54C0D5016E
:1052C000C4014EA15FA168A579A5841B950BA60B0F
:1052D000B70BB595A7959795879580936F0EAE966A
:1052E0006CAD7DAD8EAD9FADAE976D966CAF7DAF65
:1052F0008EAF9FAF6D977AA526967FAF26978EA526
:1053000027968FAF27979AA928969FAF2897AEA97F
:105310002996AFAF29972AA13BA14CA15DA169961F
:105320002CAF3DAF4EAF5FAF699764961FAE6497E9
:105330001AC00F94BC0287FF16C08AA19BA1ACA122
:10534000BDA169964CAD5DAD6EAD7FAD6997841B17
:10535000950BA60BB70BAC01BD0148585341610931
:10536000710977FF6AC620E030E040EA51E46AA59F
:105370007EA58AA99EA90F9426079B01AC01612FE7
:10538000722D832D902F0F944C0918167CF4E9EBA5
:10539000F6E084918F010F5F1F4F811103C00E94BF
:1053A000F7B6CDC20E940038F801F3CF8AA19BA1C5
:1053B000ACA1BDA1A2962CAD3DAD4EAD5FADA29707
:1053C000821B930BA40BB50BB7FD90C00E94A7B531
:1053D0008AE00E9400384AA15BA16CA17DA14053E4
:1053E000584F6F4F7F4FA2964CAF5DAF6EAF7FAF00
:1053F000A29765965FAD659751115DC0A6962CADDD
:105400003DAD4EAD5FADA697612F722D832D902FD0
:105410000F944C091816D4F520E030E040E050E439
:10542000612F722D832D902F0F942607A6966CAFB7
:105430007DAF8EAF9FAFA6976AA17BA18CA19DA1E6
:10544000605E714B8F4F9F4FAA966CAF7DAF8EAF52
:105450009FAFAA9720E030E040EC50E46AA57EA51B
:105460008AA99EA90F9425079B01AC0171E065965E
:105470007FAF6597612F722D832D902F0F944C096C
:105480001816A4F165961FAE659730C08AA19BA13E
:10549000ACA1BDA1AA962CAD3DAD4EAD5FADAA9716
:1054A000821B930BA40BB50BB7FD20C048E956E057
:1054B0006AEA76E018C020E030E040EA51E46AA5EC
:1054C0007EA58AA99EA90F9425079B01AC01612F97
:1054D000722D832D902F0F94BC0287FF07C045E7E4
:1054E00056E068E876E080E00E94D2B78AA19BA1EE
:1054F000ACA1BDA1880F991FAA1FBB1F69964CAD17
:105500005DAD6EAD7FAD6997841B950BA60BB70B98
:1055100084199509A609B70981389F44A241B105AC
:1055200068F0E7E5F6E084918F010F5F1F4F882355
:1055300009F435CF0E940038F801F5CF6AAD7BAD94
:1055400063968EAD9FAD6397861797070CF066C084
:10555000EAEFF5E084918F010F5F1F4F882321F060
:105560000E940038F801F6CFB701A60186EE95E05B
:105570000E946DA28AE00E9400382D964CAD5DAD70
:105580006EAD7FAD2D9782ED95E00E946DA28AE011
:105590000E94003861964CAD5DAD6EAD7FAD6197F8
:1055A0008EEB95E00E946DA28AE00E9400386E9614
:1055B0009FAD6E97992309F4C2C1C0923E08D09264
:1055C0003F08E0924008F09241082CEA35EC47E2AF
:1055D0005EE32D966CAD7DAD8EAD9FAD2D970F9496
:1055E000210360934608709347088093480890937E
:1055F00049082CEA35EC47E25EE361966CAD7DAD7F
:105600008EAD9FAD61970F9402086093420870932E
:105610004308809344089093450891C10E94785FA5
:10562000CFCD84918F010F5F1F4F882321F00E94FF
:105630000038F801F6CFEBE6F7E084918F010F5FB9
:105640001F4F882309F47BC10E940038F801F5CF71
:105650000E9406E574C188E50E94AA39B82E89E443
:105660000E94AA39A82E882319F00E9447391AC02F
:10567000BB20D1F00E94773920E030E040E251E4D5
:105680000F94250720E030E048E452E40F94260709
:105690002AE037ED43E25CE30F9421030F946A089C
:1056A000633010F4F62E02C0FF24FA9489E50E94BC
:1056B000AA39E82E8AE40E94AA39182F882319F003
:1056C0000E9447391AC0EE20D1F00E94773920E0BD
:1056D00030E040E251E40F94250720E030E048E458
:1056E00052E40F9426072AE037ED43E25CE30F947F
:1056F00021030F946A08633010F4062F01C00FEFE6
:105700008AE50E94AA39C82E811105C081E50E9450
:10571000AA39D82E01C0D12CA11001C010E0212F30
:1057200030E0B11002C090E001C09E2D290F311D64
:105730002130310519F0E2ECFCE005C0C1101AC0BF
:10574000D11018C0F8CF84918F010F5F1F4F8823AD
:1057500021F00E940038F801F6CFE9E9F7E08491E2
:105760008F010F5F1F4F882309F4E9C00E940038A2
:10577000F801F5CFF7FE03C0E2ECFCE006C007FF3E
:1057800017C0FACF0E940038F80184918F010F5F93
:105790001F4F8111F7CFEAE7F7E084918F010F5F88
:1057A0001F4F882309F4CBC00E940038F801F5CFC1
:1057B0000E947739A02F000FBB0B0F2DFF0C110B90
:1057C000DD2091F0F801EE0FFF1FE00FF11FEA0F4F
:1057D000FB1FEE0FFF1FEE0FFF1FEF57FD4E208147
:1057E00031814281538103C020E030E0A901F801FA
:1057F000EE0FFF1F0E0F1F1F0A0F1B1F000F111FA1
:10580000000F111F0F571D4E0F942607D8016D93DF
:105810007D938D939C93139792C00E94AF8D8FC000
:105820000E9494E48CC083E50E94AA39882319F071
:105830000E94683981270E9426DF81C081E0809321
:1058400074120E94678810927412882309F477C03A
:10585000EEEBF5E284918F010F5F1F4F882321F05B
:105860000E940038F801F6CFE9EBF7E084918F0150
:105870000F5F1F4F882309F462C00E940038F801AF
:10588000F5CF81E080932C021092EC0383E50E9417
:10589000F139882339F00E946839811150C00E9483
:1058A00080EE4DC083E50E94AA39F7CF0E94934F46
:1058B00046C0F090C6120E9406E5FF2029F1EEEBEB
:1058C000F5E284918F010F5F1F4F882321F00E9422
:1058D0000038F801F6CF84E50E9400386F2D70E0A3
:1058E00080E090E04AE00E940A3880E20E9400389E
:1058F000E6EDF7E084918F010F5F1F4F8823F9F0E9
:105900000E940038F801F6CF10921F08EEEBF5E286
:1059100084918F010F5F1F4F882321F00E94003870
:10592000F801F6CF60911F0870E084EC97E00E94C8
:105930008AA28AE00E94003802C00E94934F10920F
:1059400066080E9463EEE0C40E944739AB01BC01C7
:1059500040932512509326126093271270932812B9
:1059600084E791E10E941580EACF0E940AFAE7CF0E
:1059700061E0812F0E9445C46E2D812F0E9403C4D7
:10598000F12CB701812F0E9481C41930C1F6F09229
:10599000E503E092E403D3CF0E9477390F946A08BD
:1059A0007093E3036093E20380E00E94ACB60E9430
:1059B000773920E030E04AEA52E40F94BC0218162E
:1059C0002CF00E9429A30E9456D502C00E94CBA2AF
:1059D0006091E2037091E303072E000C880B990B92
:1059E0000F94C2022091421230914312409144120E
:1059F000509145120F944C09181634F05AA15111C8
:105A000008C087EF93E002C084E094E060E00E9469
:105A1000175F0E945CFA81E0809311021AA61BA610
:105A20001CA61DA622961CAE1DAE1EAE1FAE229752
:105A30001EA223961FAE23976CE324966FAF249784
:105A40007CE125967FAF259786E426968FAF269733
:105A5000C12CD12C30E8E32E4FEBF42E812C912C6D
:105A600054016091E2037091E303072E000C880B50
:105A7000990B0F94C202162F072F782E692E262F0E
:105A8000372F482F592FB601C7010F94BC02882326
:105A9000C1F0209142123091431240914412509132
:105AA0004512612F702F872D962D0F94BC02881FF1
:105AB0008827881F8EA39AA1992339F0882329F07B
:105AC00089C11C2D0D2D7E2C6F2C0E9480C56B0171
:105AD0007C01DC01CB0122962CAD3DAD4EAD5FAD1E
